S01B00004154586D6567615F535354565F456E636F64652E7372656326
S11300000C94FE000C941F010C941F010C941F010E
S11300100C941F010C941F010C941F010C941F01DC
S11300200C941F010C941F010C941F010C941F01CC
S11300300C941F010C941F010C94A6030C941F0133
S11300400C941F010C941F010C941F010C941F01AC
S11300500C941F010C941F010C941F010C941F019C
S11300600C941F010C941F010C9435040C941F0173
S11300700C941F010C941F010C941F010C941F017C
S11300800C941F010C941F010C941F010C941F016C
S11300900C941F010C941F010C941F010C941F015C
S11300A00C941F010C941F010C941F010C941F014C
S11300B00C941F010C941F010C941F010C941F013C
S11300C00C941F010C941F010C941F010C941F012C
S11300D00C941F010C941F010C941F010C941F011C
S11300E00C941F010C941F010C941F010C941F010C
S11300F00C941F010C941F010C941F010C941F01FC
S11301000C941F010C941F010C941F010C941F01EB
S11301100C941F010C941F010C941F010C941F01DB
S11301200C941F010C941F010C941F010C941F01CB
S11301300C941F010C941F010C941F010C941F01BB
S11301400C941F010C941F010C941F010C941F01AB
S11301500C941F010C941F010C941F010C941F019B
S11301600C941F010C941F010C941F010C941F018B
S11301700C941F010C941F010C941F010C941F017B
S11301800C941F010C941F010C941F010C941F016B
S11301900C941F010C941F010C941F010C941F015B
S11301A00C941F010C941F010C941F010C941F014B
S11301B00C941F010C941F010C941F010C941F013B
S11301C00C941F010C941F010C941F010C941F012B
S11301D00C941F010C941F010C941F010C941F011B
S11301E00C941F010C941F010C941F010C941F010B
S11301F00C941F010C941F010C941F0111241FBEA9
S1130200CFEFCDBFDFE3DEBF00E00CBF10E2A0E024
S1130210B0E2E4E7FEE000E00BBF02C007900D92FD
S1130220A430B107D9F720E2A4E0B0E201C01D92E6
S1130230A633B207E1F70E946A020C9438070C94C3
S11302400000E0EAF0E0828184608283E0E0F8E08C
S113025081E08083118283E08683809100209091E5
S1130260012086A397A30895E0E4F6E088E0818363
S113027084E0828341E060EA78E086E190E20E94D3
S1130280A304E0911620F091172083E085838381F5
S11302908F7C80618383A0EAB8E08CE016968C930F
S11302A0169717961C928481806184838481886068
S11302B08483E0EAF0E08281816082830895AF92D2
S11302C0CF92EF920F93E0E4F6E080E1818390E235
S11302D0918390E8918398E3948B8583A12CCC241B
S11302E0C394E12C08E020E040E456E060EC78E0C0
S11302F085E290E20E945F040F91EF90CF90AF905F
S11303000895FF920F931F93CF93DF93F82EC1E0CC
S1130310C09301068FEF8093A10605E016E0F80173
S1130320C083E0910220F0910320D0E1D683C093F2
S11303300606692F85E290E20E948C046F2D85E207
S113034090E20E948C04E0910220F0910320D58376
S1130350F801C083DF91CF911F910F91FF90089511
S1130360CF92DF92EF92FF920F931F93CF93DF937D
S11303708A0120E030E040E85DE40E94CB0620E200
S11303803CEB4EEB5BE40E9433050E94A5056B0138
S11303907C01CC2420ECD2222FE0F2220B2EBEE0F2
S11303A0F594E794D794C794BA95D1F7B02DEB019F
S11303B0DF7380E091E20E948101CE0190640E948B
S11303C08101C60190640E948101C8019F70906CF4
S11303D00E94810180E090E20E948101DF91CF912F
S11303E01F910F91FF90EF90DF90CF9008954F925F
S11303F05F926F927F928F929F92AF92BF92CF92B1
S1130400DF92EF92FF920F931F93CF93DF9300D06D
S11304101F92CDB7DEB72B013C0149015A01670198
S1130420780160E070E080E89FE30E94330569830F
S11304307A838B839C8320E034E244E759E4C70148
S1130440B6010E94330529813A814B815C810E9467
S113045023069B01AC010E94C70420ED3FE049E460
S113046050E40E94CB06A50194010E94CB066B01C7
S11304707C012CE839EF42E254E4C301B2010E944A
S113048033059B01AC01C701B6010E94C70420E0FB
S113049030E040E055E40E94CB0620ED3FE049E423
S11304A050E40E9433050E94AC05CB012496CDBFD5
S11304B0DEBFDF91CF911F910F91FF90EF90DF90FE
S11304C0CF90BF90AF909F908F907F906F905F90F0
S11304D04F9008950E9421010E9434010E945F01FF
S11304E080E091E00E9481018FE493EC0197F1F7A1
S11304F000C0000040E050E060E070E88DEE94E45D
S11305000E94B0019FEBE4EDF1E09150E040F04037
S1130510E1F700C0000040E050E060E070E086E9F0
S113052094E40E94B00187E893E10197F1F700C0D9
S1130530000040E050E060E070E88DEE94E40E943A
S1130540B0019FEBE4EDF1E09150E040F040E1F7C1
S113055000C0000040E050E060E070E086E994E410
S11305600E94B00183EA98E30197F1F700C000000C
S1130570E3EAF1E03197F1F7000040E050E060E099
S113058070E889E894E40E94B00183EA98E3019753
S1130590F1F700C00000E3EAF1E03197F1F7000061
S11305A040E050E060E070E889E894E40E94B00123
S11305B083EA98E30197F1F700C00000E3EAF1E071
S11305C03197F1F7000040E050E060E070E882EA23
S11305D094E40E94B00183EA98E30197F1F700C024
S11305E00000E3EAF1E03197F1F7000040E050E069
S11305F060E070E882EA94E40E94B00183EA98E340
S11306000197F1F700C00000E3EAF1E03197F1F758
S1130610000040E050E060E070E882EA94E40E9468
S1130620B00183EA98E30197F1F700C00000E3EA20
S1130630F1E03197F1F7000040E050E060E070E84D
S113064089E894E40E94B00183EA98E30197F1F702
S113065000C00000E3EAF1E03197F1F7000040E068
S113066050E060E070E889E894E40E94B00183EA15
S113067098E30197F1F700C00000E3EAF1E0319755
S1130680F1F7000040E050E060E070E882EA94E4B2
S11306900E94B00183EA98E30197F1F700C00000DB
S11306A0E3EAF1E03197F1F7000040E050E060E068
S11306B070E086E994E40E94B00183EA98E301972C
S11306C0F1F700C00000E3EAF1E03197F1F7000030
S11306D0C1E8D0E000E018E040E050E060E070E005
S11306E086E994E40E94B0018BE195E20197F1F769
S11306F000C00000E3EAF1E03197F1F700C0000028
S113070040E050E060E070E88BEB94E40E94B001BC
S113071083EF91E00197F1F700C00000EBECF1E00A
S11307203197F1F7000010920C2010920D20F8017F
S113073010A211A2789480910C2090910D20813008
S11307409540CCF3F894219739F6FFCF1F920F927E
S11307500FB60F9211240BB60F928F929F92AF9205
S1130760BF92EF92FF920F931F932F933F934F9358
S11307705F936F937F938F939F93AF93BF93CF9325
S1130780DF93EF93FF93C0910820D09109206091EB
S11307900A2070910B20072E000C880B990B0E94E5
S11307A0DD05AE010E94B0018091082090910920DE
S11307B0809306209093072080910A2090910B202B
S11307C0809304209093052080910C2090910D201B
S11307D0019680930C2090930D20609104207091D9
S11307E00520C0910620D0910720072E000C880B0D
S11307F0990B0E94DD054B015C01BE01DD0F880BE6
S1130800990B0E94DD05E12CF12C05E014E4A5010F
S113081094010E94F701809308209093092080910D
S11308200C2090910D20019680930C2090930D2024
S1130830FF91EF91DF91CF91BF91AF919F918F91F4
S11308407F916F915F914F913F912F911F910F91E4
S1130850FF90EF90BF90AF909F908F900F900BBE42
S11308600F900FBE0F901F9018951F920F920FB606
S11308700F9211240BB60F922F933F934F935F93D4
S11308806F937F938F939F93AF93BF93EF93FF9354
S113089086E190E20E94AC04FF91EF91BF91AF9189
S11308A09F918F917F916F915F914F913F912F9184
S11308B00F900BBE0F900FBE0F901F901895AF9224
S11308C0CF92EF920F93FC01608371834283538331
S11308D01482C11002C080E001C080E89A2D9064A7
S11308E0A92EA82A211102C080E001C080E2A82A12
S11308F000610A29DB010C93A081B1811196EC926D
S1130900158216820280F381E02D80EA81830F91A3
S1130910EF90CF90AF900895DC01ED91FC91119789
S11309206383ED91FC9182818823ECF783819FEFAF
S11309309093A6068093A506EFE1FEE43197F1F7C4
S113094000C000000895FC01608371834283148613
S11309501386168615860895FC0196858585981359
S113096007C00190F081E02D83818C7F83830895FB
S11309708685DF01A80FB11D17968C91A081B181E6
S11309808C9386858F5F8370868708955058BB2724
S1130990AA270E94DE040C9491060E94830638F074
S11309A00E948A0620F039F49F3F19F426F40C942F
S11309B080060EF4E095E7FB0C946C06E92F0E9488
S11309C0A20658F3BA17620773078407950720F045
S11309D079F4A6F50C94C4060EF4E0950B2EBA2F08
S11309E0A02D0B01B90190010C01CA01A001112431
S11309F0FF27591B99F0593F50F4503E68F11A16DD
S1130A00F040A22F232F342F4427585FF3CF46956D
S1130A1037952795A795F0405395C9F77EF41F168F
S1130A20BA0B620B730B840BBAF09150A1F0FF0F59
S1130A30BB1F661F771F881FC2F70EC0BA0F621F45
S1130A40731F841F48F4879577956795B795F79535
S1130A509E3F08F0B0CF9395880F08F09927EE0FCA
S1130A609795879508950E9447050C9491060E94D6
S1130A708A0658F00E94830640F029F45F3F29F06B
S1130A800C946C0651110C94C5060C9480060E94BB
S1130A90A20668F39923B1F3552391F3951B550BE3
S1130AA0BB27AA2762177307840738F09F5F5F4F3D
S1130AB0220F331F441FAA1FA9F335D00E2E3AF07C
S1130AC0E0E832D091505040E695001CCAF72BD094
S1130AD0FE2F29D0660F771F881FBB1F26173707E5
S1130AE04807AB07B0E809F0BB0B802DBF01FF2717
S1130AF093585F4F3AF09E3F510578F00C946C0682
S1130B000C94C5065F3FE4F3983ED4F3869577953D
S1130B106795B795F7959F5FC9F7880F911D9695CF
S1130B20879597F90895E1E0660F771F881FBB1F2B
S1130B30621773078407BA0720F0621B730B840BD8
S1130B40BA0BEE1F88F7E09508950E94AC056894EF
S1130B50B1110C94C50608950E94AA0688F09F5707
S1130B6098F0B92F9927B751B0F0E1F0660F771FCD
S1130B70881F991F1AF0BA95C9F714C0B13091F0C3
S1130B800E94C406B1E008950C94C406672F782F20
S1130B908827B85F39F0B93FCCF386957795679588
S1130BA0B395D9F73EF490958095709561957F4FF4
S1130BB08F4F9F4F0895E89409C097FB3EF490959A
S1130BC08095709561957F4F8F4F9F4F9923A9F022
S1130BD0F92F96E9BB279395F695879577956795B1
S1130BE0B795F111F8CFFAF4BB0F11F460FF1BC0F5
S1130BF06F5F7F4F8F4F9F4F16C0882311F096E988
S1130C0011C0772321F09EE8872F762F05C0662335
S1130C1071F096E8862F70E060E02AF09A95660FEE
S1130C20771F881FDAF7880F9695879597F90895A7
S1130C300E94830620F019F00E948A0650F40C9456
S1130C4080060C94C506E92F0E94A20688F355235A
S1130C50B1F3E7FB6217730784079507A8F189F3DB
S1130C60E92FFF2788232AF03197660F771F881F03
S1130C70DAF7952F5527442332F091505040220F34
S1130C80331F441FD2F7BB27E91BF50B621B730B01
S1130C90840BB109B1F222F4620F731F841FB11DDA
S1130CA031972AF0660F771F881FBB1FEFCF915033
S1130CB0504062F041F0882332F0660F771F881F9E
S1130CC091505040C1F793950C9472068695779590
S1130CD067959F5FD9F7F7CF97F99F6780E870E032
S1130CE060E008959F3F31F0915020F48795779507
S1130CF06795B795880F911D9695879597F90895EF
S1130D009FEF80EC089500240A941616170618061F
S1130D100906089500240A941216130614060506FB
S1130D200895092E0394000C11F4882352F0BB0F8C
S1130D3040F4BF2B11F460FF04C06F5F7F4F8F4FEF
S1130D409F4F089557FD9058440F551F59F05F3F2A
S1130D5071F04795880F97FB991F61F09F3F79F0D9
S1130D6087950895121613061406551FF2CF46955B
S1130D70F1DF08C0161617061806991FF1CF8695DD
S1130D807105610508940895E894BB2766277727C1
S1130D90CB0197F908950E94DE060C9491060E94F7
S1130DA0830638F00E948A0620F0952311F00C94F3
S1130DB06C060C94800611240C94C5060E94A206AD
S1130DC070F3959FC1F3950F50E0551F629FF0019A
S1130DD0729FBB27F00DB11D639FAA27F00DB11DB3
S1130DE0AA1F649F6627B00DA11D661F829F22273C
S1130DF0B00DA11D621F739FB00DA11D621F839FC3
S1130E00A00D611D221F749F3327A00D611D231F98
S1130E10849F600D211D822F762F6A2F11249F57E6
S1130E2050409AF0F1F088234AF0EE0FFF1FBB1FE9
S1130E30661F771F881F91505040A9F79E3F5105A8
S1130E4080F00C946C060C94C5065F3FE4F3983E66
S1130E50D4F3869577956795B795F795E7959F5F52
S1130E60C1F7FE2B880F911D9695879597F90895E4
S1070E70F894FFCF20
S1070E742704400605
S9030000FC
