S01B00004154586D6567615F535354565F456E636F64652E7372656326
S11300000C94FE000C941F010C941F010C941F010E
S11300100C941F010C941F010C941F010C941F01DC
S11300200C941F010C941F010C941F010C941F01CC
S11300300C941F010C941F010C941F010C941F01BC
S11300400C944F030C941F010C941F010C941F017A
S11300500C941F010C941F010C941F010C941F019C
S11300600C941F010C941F010C943E050C941F0169
S11300700C941F010C941F010C941F010C941F017C
S11300800C941F010C941F010C941F010C941F016C
S11300900C941F010C941F010C941F010C941F015C
S11300A00C941F010C941F010C941F010C941F014C
S11300B00C941F010C941F010C941F010C941F013C
S11300C00C941F010C941F010C941F010C941F012C
S11300D00C941F010C941F010C941F010C941F011C
S11300E00C941F010C941F010C941F010C941F010C
S11300F00C941F010C941F010C941F010C941F01FC
S11301000C941F010C941F010C941F010C941F01EB
S11301100C941F010C941F010C941F010C941F01DB
S11301200C941F010C941F010C941F010C941F01CB
S11301300C941F010C941F010C941F010C941F01BB
S11301400C941F010C941F010C941F010C941F01AB
S11301500C941F010C941F010C941F010C941F019B
S11301600C941F010C941F010C941F010C941F018B
S11301700C941F010C941F010C941F010C941F017B
S11301800C941F010C941F010C941F010C941F016B
S11301900C941F010C941F010C941F010C941F015B
S11301A00C941F010C941F010C941F010C941F014B
S11301B00C941F010C941F010C941F010C941F013B
S11301C00C941F010C941F010C941F010C941F012B
S11301D00C941F010C941F010C941F010C941F011B
S11301E00C941F010C941F010C941F010C941F010B
S11301F00C941F010C941F010C941F0111241FBEA9
S1130200CFEFCDBFDFE3DEBF00E00CBF10E2A0E024
S1130210B0E2E8EBFFE000E00BBF02C007900D92F4
S1130220A630B107D9F720E2A6E0B0E201C01D92E2
S1130230A934B207E1F70E94DB010C94DA070C94AD
S11302400000CF92DF92EF92FF920F931F93CF9310
S1130250DF938A0120E030E040E85DE40E946D070E
S113026020E23CEB4EEB5BE40E94D5050E9447067E
S11302706B017C01CC2420ECD2222FE0F2220B2E45
S1130280BEE0F594E794D794C794BA95D1F7B02D0E
S1130290EB01DF7380E091E20E949704CE01906449
S11302A00E949704C60190640E949704C8019F703D
S11302B0906C0E94970480E090E20E949704DF9182
S11302C0CF911F910F91FF90EF90DF90CF90089501
S11302D04F925F926F927F928F929F92AF92BF9252
S11302E0CF92DF92EF92FF920F931F93CF93DF93FE
S11302F000D01F92CDB7DEB72B013C0149015A0152
S11303006701780160E070E080E89FE30E94D50512
S113031069837A838B839C8320E034E244E759E445
S1130320C701B6010E94D50529813A814B815C81C0
S11303300E94C5069B01AC010E94690520ED3FE0C7
S113034049E450E40E946D07A50194010E946D07E1
S11303506B017C012CE839EF42E254E4C301B201A1
S11303600E94D5059B01AC01C701B6010E94690535
S113037020E030E040E055E40E946D0720ED3FE0CE
S113038049E450E40E94D5050E944E06CB01249610
S1130390CDBFDEBFDF91CF911F910F91FF90EF9002
S11303A0DF90CF90BF90AF909F908F907F906F9091
S11303B05F904F9008950E94DD040E94C6040E943D
S11303C067040E94FE030E940D0580E091E00E94F4
S11303D097042FEF81EE94E0215080409040E1F7A4
S11303E000C0000040E050E060E070E88DEE94E46E
S11303F00E942101EFEFF5EA2EE0E150F0402040A9
S1130400E1F700C0000040E050E060E070E086E901
S113041094E40E9421018FE39CE90197F1F700C065
S1130420000040E050E060E070E88DEE94E40E944B
S113043021019FEFE5EAFEE09150E040F040E1F752
S113044000C0000040E050E060E070E086E994E421
S11304500E9421012FE78AE691E0215080409040DC
S1130460E1F700C00000E3E0FFE03197F1F700C0DE
S1130470000040E050E060E070E889E894E40E9405
S11304802101FFE72AE681E0F15020408040E1F7B6
S113049000C00000E3E0FFE03197F1F700C0000086
S11304A040E050E060E070E889E894E40E942101B3
S11304B0FFE72AE681E0F15020408040E1F700C0E8
S11304C00000E3E0FFE03197F1F700C0000040E0F6
S11304D050E060E070E882EA94E40E942101FFE7C2
S11304E02AE681E0F15020408040E1F700C000009E
S11304F0E3E0FFE03197F1F700C0000040E050E096
S113050060E070E882EA94E40E942101FFE72AE6B1
S113051081E0F15020408040E1F700C00000E3E0BA
S1130520FFE03197F1F700C0000040E050E060E0E8
S113053070E882EA94E40E942101FFE72AE681E060
S1130540F15020408040E1F700C00000E3E0FFE00C
S11305503197F1F700C0000040E050E060E070E83F
S113056089E894E40E942101FFE72AE681E0F15042
S113057020408040E1F700C00000E3E0FFE0319755
S1130580F1F700C0000040E050E060E070E889E866
S113059094E40E942101FFE72AE681E0F150204023
S11305A08040E1F700C00000E3E0FFE03197F1F79D
S11305B000C0000040E050E060E070E882EA94E4AB
S11305C00E942101FFE72AE681E0F15020408040AB
S11305D0E1F700C00000E3E0FFE03197F1F700C06D
S11305E0000040E050E060E070E086E994E40E949E
S11305F02101FFE72AE681E0F15020408040E1F745
S113060000C00000E3E0FFE03197F1F700C0000014
S1130610C1E8D0E000E018E040E050E060E070E0C5
S113062086E994E40E942101FFE72DEE80E0F15079
S113063020408040E1F700C00000E3E0FFE0319794
S1130640F1F700C0000040E050E060E070E88BEBA0
S113065094E40E9421018FE39FE10197F1F700C028
S113066000009AED9A95F1F700C0109206201092BE
S11306700720F80110A211A278948091062090918D
S1130680072081309540CCF3F894219729F640E077
S113069050E060E070E0CB010E942101FFCF1F9287
S11306A00F920FB60F9211240BB60F928F929F9256
S11306B0AF92BF92EF92FF920F931F932F933F93AA
S11306C04F935F936F937F938F939F93AF93BF9356
S11306D0CF93DF93EF93FF93C0910C20D0910D2023
S11306E06091002070910120072E000C880B990B5B
S11306F00E947F06AE010E94210180910C209091FE
S11307000D2080930A2090930B20809100209091DB
S113071001208093082090930920809106209091D5
S113072007208F33914039F48DEC98E080930020BA
S1130730909301201BC080910620909107208F3751
S1130740924039F486EF96E0809300209093012044
S11307500DC080910620909107208F3B934031F487
S11307608DED96E080930020909301206091082005
S113077070910920C0910A20D0910B20072E000C03
S1130780880B990B0E947F064B015C01BE01DD0FB3
S1130790880B990B0E947F06E12CF12C05E014E4F0
S11307A0A50194010E94680180930C2090930D2070
S11307B080910620909107200196809306209093C3
S11307C00720FF91EF91DF91CF91BF91AF919F915E
S11307D08F917F916F915F914F913F912F911F91D5
S11307E00F91FF90EF90BF90AF909F908F900F90DC
S11307F00BBE0F900FBE0F901F901895AF92CF9223
S1130800EF920F93E0E6F6E034E0318328E02183B1
S113081090E1918380E2818380E8818388E3828B05
S1130820838B848B358325839583A12CCC24C3941B
S1130830E12C08E020E040E656E060EC79E089E154
S113084090E20E942E0482E090E080930220909334
S113085003200F91EF90CF90AF900895AF92CF9275
S1130860EF920F93FC01608371834283538314825C
S1130870C11002C080E001C080E89A2D9064A92EC6
S1130880A82A211102C080E001C080E2A82A0061E8
S11308900A29DB010C93A081B1811196EC92158297
S11308A016820280F381E02D80EA81830F91EF901C
S11308B0CF90AF900895DC01ED91FC911197638383
S11308C0ED91FC9182818823ECF783810895CF9385
S11308D0DF93A0E4B6E080E111968C93119790E247
S11308E011969C93119790E811969C93119798E315
S11308F054969C93549715968C931597E9E2F0E2DD
S1130900C0ECD8E0C083D183A283B383148288ED82
S11309108883A081B18111961C921582168202806F
S1130920F381E02D80EA8183DF91CF910895FF92D6
S11309300F931F93CF93DF93F82EC1E0C09301066A
S11309408FEF8093A10605E016E0F801C083E091E3
S11309500420F0910520D0E1D683C0930606692FC8
S113096089E290E20E945B046F2D89E290E20E948A
S11309705B04E0910420F0910520D583F801C08345
S1130980DF91CF911F910F91FF900895E0E0F8E07F
S113099081E1818381E087832FEF3FEF26A337A393
S11309A020E431E220932808309329088083E0EA88
S11309B0F0E0828181608283089581E08093600603
S11309C08BEC80935200E0E5F0E0808188608083C6
S11309D0E1E5F0E0808183FFFDCF88ED84BF83E013
S11309E0809340000895FC0196858585981307C07F
S11309F00190F081E02D83818C7F83830895868527
S1130A00DF01A80FB11D17968C91A081B1818C9341
S1130A1086858F5F837086870895E0E4F6E088E03A
S1130A20818384E08283AAE3B0E2E0EAF8E0ED9314
S1130A30FC93119781E012968C9312971C961C924A
S1130A401C971B961C921B971E961C921E971D9614
S1130A501C9283E0858383818F7C806183838CE017
S1130A6086831782848180618483848188608483FF
S1130A70E0EAF0E082818160828308951F920F9200
S1130A800FB60F9211240BB60F922F933F934F93EF
S1130A905F936F937F938F939F93AF93BF93EF93E2
S1130AA0FF938AE390E20E94F304FF91EF91BF91D8
S1130AB0AF919F918F917F916F915F914F913F91F2
S1130AC02F910F900BBE0F900FBE0F901F90189593
S1130AD05058BB27AA270E9480050C9433070E9414
S1130AE0250738F00E942C0720F039F49F3F19F4B1
S1130AF026F40C9422070EF4E095E7FB0C940E0701
S1130B00E92F0E94440758F3BA1762077307840752
S1130B10950720F079F4A6F50C9466070EF4E09599
S1130B200B2EBA2FA02D0B01B90190010C01CA01A3
S1130B30A0011124FF27591B99F0593F50F4503E4E
S1130B4068F11A16F040A22F232F342F4427585F40
S1130B50F3CF469537952795A795F0405395C9F758
S1130B607EF41F16BA0B620B730B840BBAF0915010
S1130B70A1F0FF0FBB1F661F771F881FC2F70EC0AF
S1130B80BA0F621F731F841F48F487957795679582
S1130B90B795F7959E3F08F0B0CF9395880F08F06E
S1130BA09927EE0F9795879508950E94E9050C946F
S1130BB033070E942C0758F00E94250740F029F4BF
S1130BC05F3F29F00C940E0751110C9467070C94A5
S1130BD022070E94440768F39923B1F3552391F344
S1130BE0951B550BBB27AA2762177307840738F098
S1130BF09F5F5F4F220F331F441FAA1FA9F335D0F5
S1130C000E2E3AF0E0E832D091505040E695001CA8
S1130C10CAF72BD0FE2F29D0660F771F881FBB1F62
S1130C20261737074807AB07B0E809F0BB0B802D40
S1130C30BF01FF2793585F4F3AF09E3F510578F06C
S1130C400C940E070C9467075F3FE4F3983ED4F3CB
S1130C50869577956795B795F7959F5FC9F7880F40
S1130C60911D9695879597F90895E1E0660F771F92
S1130C70881FBB1F621773078407BA0720F0621B23
S1130C80730B840BBA0BEE1F88F7E09508950E944E
S1130C904E066894B1110C94670708950E944C079E
S1130CA088F09F5798F0B92F9927B751B0F0E1F029
S1130CB0660F771F881F991F1AF0BA95C9F714C0D9
S1130CC0B13091F00E946607B1E008950C94660774
S1130CD0672F782F8827B85F39F0B93FCCF3869512
S1130CE077956795B395D9F73EF49095809570956F
S1130CF061957F4F8F4F9F4F0895E89409C097FBEC
S1130D003EF490958095709561957F4F8F4F9F4FDE
S1130D109923A9F0F92F96E9BB279395F695879522
S1130D2077956795B795F111F8CFFAF4BB0F11F4E5
S1130D3060FF1BC06F5F7F4F8F4F9F4F16C088238C
S1130D4011F096E911C0772321F09EE8872F762FC2
S1130D5005C0662371F096E8862F70E060E02AF003
S1130D609A95660F771F881FDAF7880F96958795EF
S1130D7097F908950E94250720F019F00E942C0786
S1130D8050F40C9422070C946707E92F0E9444073F
S1130D9088F35523B1F3E7FB6217730784079507BC
S1130DA0A8F189F3E92FFF2788232AF03197660FEA
S1130DB0771F881FDAF7952F5527442332F0915077
S1130DC05040220F331F441FD2F7BB27E91BF50BFA
S1130DD0621B730B840BB109B1F222F4620F731F0F
S1130DE0841FB11D31972AF0660F771F881FBB1F20
S1130DF0EFCF9150504062F041F0882332F0660FFB
S1130E00771F881F91505040C1F793950C94140795
S1130E108695779567959F5FD9F7F7CF97F99F6781
S1130E2080E870E060E008959F3F31F0915020F435
S1130E30879577956795B795880F911D96958795B2
S1130E4097F908959FEF80EC089500240A941616EC
S1130E50170618060906089500240A9412161306A4
S1130E60140605060895092E0394000C11F4882332
S1130E7052F0BB0F40F4BF2B11F460FF04C06F5F4E
S1130E807F4F8F4F9F4F089557FD9058440F551F24
S1130E9059F05F3F71F04795880F97FB991F61F0F8
S1130EA09F3F79F087950895121613061406551F6F
S1130EB0F2CF4695F1DF08C0161617061806991FDB
S1130EC0F1CF86957105610508940895E894BB27D0
S1130ED066277727CB0197F908950E9480070C9421
S1130EE033070E94250738F00E942C0720F0952331
S1130EF011F00C940E070C94220711240C9467072C
S1130F000E94440770F3959FC1F3950F50E0551F5D
S1130F10629FF001729FBB27F00DB11D639FAA274A
S1130F20F00DB11DAA1F649F6627B00DA11D661F99
S1130F30829F2227B00DA11D621F739FB00DA11DBA
S1130F40621F839FA00D611D221F749F3327A00D74
S1130F50611D231F849F600D211D822F762F6A2F10
S1130F6011249F5750409AF0F1F088234AF0EE0F75
S1130F70FF1FBB1F661F771F881F91505040A9F7A2
S1130F809E3F510580F00C940E070C9467075F3F59
S1130F90E4F3983ED4F3869577956795B795F795DE
S1130FA0E7959F5FC1F7FE2B880F911D9695879556
S10B0FB097F90895F894FFCFAE
S1090FB8DD060200400604
S9030000FC
