:100000000C94FE000C941F010C941F010C941F0112
:100010000C941F010C941F010C941F010C941F01E0
:100020000C941F010C941F010C941F010C941F01D0
:100030000C941F010C941F010C941F010C941F01C0
:100040000C9456020C941F010C941F010C941F0178
:100050000C941F010C941F010C941F010C941F01A0
:100060000C941F010C941F010C9464050C941F0147
:100070000C941F010C941F010C941F010C941F0180
:100080000C941F010C941F010C941F010C941F0170
:100090000C941F010C941F010C941F010C941F0160
:1000A0000C941F010C941F010C941F010C941F0150
:1000B0000C941F010C941F010C941F010C941F0140
:1000C0000C941F010C941F010C941F010C941F0130
:1000D0000C941F010C941F010C941F010C941F0120
:1000E0000C941F010C941F010C941F010C941F0110
:1000F0000C941F010C941F010C941F010C941F0100
:100100000C941F010C941F010C941F010C941F01EF
:100110000C941F010C941F010C941F010C941F01DF
:100120000C941F010C941F010C941F010C941F01CF
:100130000C941F010C941F010C941F010C941F01BF
:100140000C941F010C941F010C941F010C941F01AF
:100150000C941F010C941F010C941F010C941F019F
:100160000C941F010C941F010C941F010C941F018F
:100170000C941F010C941F010C941F010C941F017F
:100180000C941F010C941F010C941F010C941F016F
:100190000C941F010C941F010C941F010C941F015F
:1001A0000C941F010C941F010C941F010C941F014F
:1001B0000C941F010C941F010C941F010C941F013F
:1001C0000C941F010C941F010C941F010C941F012F
:1001D0000C941F010C941F010C941F010C941F011F
:1001E0000C941F010C941F010C941F010C941F010F
:1001F0000C941F010C941F010C941F0111241FBEAD
:10020000CFEFCDBFDFE3DEBF00E00CBF10E2A0E028
:10021000B0E2E4E0F0E100E00BBF02C007900D9215
:10022000A830B107D9F720E2A8E0B0E201C01D92E2
:10023000AE34B207E1F70E94DB010C9400080C9485
:100240000000CF92DF92EF92FF920F931F93CF9314
:10025000DF938A0120E030E040E85DE40E949307EC
:1002600020E23CEB4EEB5BE40E94FB050E946D0636
:100270006B017C01CC2420ECD2222FE0F2220B2E49
:10028000BEE0F594E794D794C794BA95D1F7B02D12
:10029000EB01DF7380E091E20E94BD04CE01906427
:1002A0000E94BD04C60190640E94BD04C8019F70F5
:1002B000906C0E94BD0480E090E20E94BD04DF913A
:1002C000CF911F910F91FF90EF90DF90CF90089505
:1002D0004F925F926F927F928F929F92AF92BF9256
:1002E000CF92DF92EF92FF920F931F93CF93DF9302
:1002F00000D01F92CDB7DEB72B013C0149015A0156
:100300006701780160E070E080E89FE30E94FB05F0
:1003100069837A838B839C8320E034E244E759E449
:10032000C701B6010E94FB0529813A814B815C819E
:100330000E94EB069B01AC010E948F0520ED3FE07F
:1003400049E450E40E949307A50194010E94930799
:100350006B017C012CE839EF42E254E4C301B201A5
:100360000E94FB059B01AC01C701B6010E948F05ED
:1003700020E030E040E055E40E94930720ED3FE0AC
:1003800049E450E40E94FB050E947406CB012496C8
:10039000CDBFDEBFDF91CF911F910F91FF90EF9006
:1003A000DF90CF90BF90AF909F908F907F906F9095
:1003B0005F904F9008950E9403050E94EC040E94F4
:1003C0007A040E9400030E94330585E69CE20E94A5
:1003D000BD0480E00E94AA042FEF81EE94E021503A
:1003E00080409040E1F700C0000080E090E30E9470
:1003F000BD0484E40E94AA042FEF81EE94E0215012
:1004000080409040E1F700C0000080E094E00E944E
:10041000BD0480E00E94AA042FEF81EE94E02150F9
:1004200080409040E1F700C0000084E09AE00E9424
:10043000BD048FE30E94AA042FEF81EE94E02150C7
:1004400080409040E1F700C0000080E099E20E9407
:10045000BD0482E30E94AA042FEF81EE94E02150B4
:1004600080409040E1F700C0000084E09AE20E94E2
:10047000BD0480EB0E94AA042FEF81EE94E021508E
:1004800080409040E1F700C000008BE19BE20E94B9
:10049000BD0480E00E94AA042FEF81EE94E0215079
:1004A00080409040E1F700C00000FFCF1F920F9204
:1004B0000FB60F9211240BB60F928F929F92AF92AC
:1004C000BF92EF92FF920F931F932F933F934F93FF
:1004D0005F936F937F938F939F93AF93BF93CF93CC
:1004E000DF93EF93FF93C0911120D0911220609180
:1004F000002070910120072E000C880B990B0E94A0
:10050000A506AE010E942101809111209091122038
:1005100080930F20909310208091002090910120D3
:1005200080930D2090930E2048E050E269E070E245
:100530008AE090E20E946A0390E08093002090930A
:1005400001206091002070910120072E000C880B83
:10055000990B0E94A50629EC38EC48E450E40E946F
:10056000930720E030E84BEB54E40E948F050E9493
:100570006D06609300207093012060910D207091B2
:100580000E20C0910F20D0911020072E000C880B58
:10059000990B0E94A5064B015C01BE01DD0F880B83
:1005A000990B0E94A506E12CF12C05E014E4A501AD
:1005B00094010E94680180931120909312208091F1
:1005C0000B2090910C20FF91EF91DF91CF91BF9183
:1005D000AF919F918F917F916F915F914F913F91DB
:1005E0002F911F910F91FF90EF90BF90AF909F9030
:1005F0008F900F900BBE0F900FBE0F901F9018950D
:10060000AF92CF92EF920F93E0E6F6E034E03183C1
:1006100028E0218390E1918380E2818380E88183D7
:1006200088E3828B838B848B358325839583A12CF0
:10063000CC24C394E12C08E020E040E656E060ECD6
:1006400079E08EE190E20E94D00382E090E0809316
:100650000220909303200F91EF90CF90AF900895D8
:100660008230910561F08330910581F00197A1F40A
:10067000E0910420F091052084E086830895E091C4
:100680000420F091052088E086830895E0910420FD
:10069000F091052080E1868308958230910561F014
:1006A0008330910581F00197A1F4E0910420F0914D
:1006B000052084E085830895E0910420F0910520D1
:1006C00088E085830895E0910420F091052080E181
:1006D00085830895AF92BF92CF92DF92EF920F93EE
:1006E0001F93CF93DF935C016B01EA016894EE24C2
:1006F000E4F800E616E021E04DE150E265E270E248
:1007000083E190E20E94FD038091022090910320FA
:100710000E94300363E08EE190E20E940F04F50135
:1007200060818EE190E20E940F04F60160818EE10B
:1007300090E20E940F0468818EE190E20E940F0413
:1007400063E170E28EE190E20E941B04809102203E
:10075000909103200E944D0388818F3F91F4F60110
:1007600080818F3F41F4F50180818F5F8083F601A6
:100770001082188209C0F60180818F5F8083188201
:1007800003C088818F5F888380911D20DF91CF9186
:100790001F910F91EF90DF90CF90BF90AF90089591
:1007A000AF92CF92EF920F93FC01608371834283EB
:1007B00053831482C11002C080E001C080E89A2DEA
:1007C0009064A92EA82A211102C080E001C080E215
:1007D000A82A00610A29DB010C93A081B18111963E
:1007E000EC92158216820280F381E02D80EA8183EB
:1007F0000F91EF90CF90AF900895EF920F931F93CA
:10080000FC0100831183E2826383748345835683F2
:100810002783108611861F910F91EF900895DC01B8
:10082000ED91FC9111976383ED91FC918281882376
:10083000ECF783810895CF93DF93DC01FB013097C0
:1008400009F44EC015966D937C9316977281C08102
:10085000D181209709F446C07E836781662349F1E0
:1008600020E030E080E0A9011596ED91FC9116970B
:100870000380F481E02DE20FF31F9081ED91FC9154
:1008800011979383ED91FC91119792819923ECF745
:1008900093811596ED91FC9116970580F681E02DD8
:1008A000E40FF51F90838F5F2F5F3F4F8617D8F2BD
:1008B00001C080E01596ED91FC9116970190F081B2
:1008C000E02D309709F075831596ED91FC91169700
:1008D00080871596ED91FC91169781E0818707C07E
:1008E00080E005C067816111BBCF80E0EDCFDF9173
:1008F000CF910895CF93DF93A0E4B6E080E1119605
:100900008C93119790E211969C93119790E8119611
:100910009C93119798E354969C93549715968C93B7
:100920001597EEE2F0E2C0ECD8E0C083D183A28359
:10093000B383148288ED8883A081B18111961C92C3
:10094000158216820280F381E02D80EA8183DF9197
:10095000CF910895CF93E0910620F0910720C0E158
:10096000C683682F8EE290E20E940F04E091062079
:10097000F0910720C583CF910895FF920F931F93A5
:10098000CF93DF93F82EC1E0C09301068FEF8093E1
:10099000A10605E016E0F801C083E0910620F09181
:1009A0000720D0E1D683C0930606692F8EE290E23D
:1009B0000E940F046F2D8EE290E20E940F04E091DE
:1009C0000620F0910720D583F801C083DF91CF91F5
:1009D0001F910F91FF900895E0E0F8E081E181839D
:1009E00081E087832FEF3FEF26A337A320E431E296
:1009F00020932808309329088083E0EAF0E0828180
:100A000081608283089581E0809360068BEC8093FF
:100A10005200E0E5F0E0808188608083E1E5F0E06D
:100A2000808183FFFDCF88ED84BF83E08093400009
:100A30000895FC0196858585981307C00190F08183
:100A4000E02D83818C7F838308958685DF01A80F45
:100A5000B11D17968C91A081B1818C9386858F5F93
:100A6000837086870895E0E4F6E088E0818384E07F
:100A70008283AFE3B0E2E0EAF8E0ED93FC931197F4
:100A800081E012968C9312971C961C921C971B96D1
:100A90001C921B971E961C921E971D961C9283E01B
:100AA000858383818F7C806183838CE0868317823A
:100AB000848180618483848188608483E0EAF0E0BB
:100AC00082818160828308951F920F920FB60F92E8
:100AD00011240BB60F922F933F934F935F936F9315
:100AE0007F938F939F93AF93BF93EF93FF938FE386
:100AF00090E20E941905FF91EF91BF91AF919F91F4
:100B00008F917F916F915F914F913F912F910F90B6
:100B10000BBE0F900FBE0F901F9018955058BB271B
:100B2000AA270E94A6050C9459070E944B0738F08B
:100B30000E94520720F039F49F3F19F426F40C94D8
:100B400048070EF4E095E7FB0C943407E92F0E9468
:100B50006A0758F3BA17620773078407950720F0EE
:100B600079F4A6F50C948C070EF4E0950B2EBA2FB1
:100B7000A02D0B01B90190010C01CA01A0011124A3
:100B8000FF27591B99F0593F50F4503E68F11A164F
:100B9000F040A22F232F342F4427585FF3CF4695E0
:100BA00037952795A795F0405395C9F77EF41F1602
:100BB000BA0B620B730B840BBAF09150A1F0FF0FCC
:100BC000BB1F661F771F881FC2F70EC0BA0F621FB8
:100BD000731F841F48F4879577956795B795F795A8
:100BE0009E3F08F0B0CF9395880F08F09927EE0F3D
:100BF0009795879508950E940F060C9459070E94B7
:100C0000520758F00E944B0740F029F45F3F29F04B
:100C10000C94340751110C948D070C9448070E94D2
:100C20006A0768F39923B1F3552391F3951B550B8C
:100C3000BB27AA2762177307840738F09F5F5F4FAF
:100C4000220F331F441FAA1FA9F335D00E2E3AF0EE
:100C5000E0E832D091505040E695001CCAF72BD006
:100C6000FE2F29D0660F771F881FBB1F2617370757
:100C70004807AB07B0E809F0BB0B802DBF01FF2789
:100C800093585F4F3AF09E3F510578F00C9434072B
:100C90000C948D075F3FE4F3983ED4F386957795E7
:100CA0006795B795F7959F5FC9F7880F911D969542
:100CB000879597F90895E1E0660F771F881FBB1F9E
:100CC000621773078407BA0720F0621B730B840B4B
:100CD000BA0BEE1F88F7E09508950E947406689499
:100CE000B1110C948D0708950E94720788F09F57E8
:100CF00098F0B92F9927B751B0F0E1F0660F771F40
:100D0000881F991F1AF0BA95C9F714C0B13091F035
:100D10000E948C07B1E008950C948C07672F782F00
:100D20008827B85F39F0B93FCCF3869577956795FA
:100D3000B395D9F73EF490958095709561957F4F66
:100D40008F4F9F4F0895E89409C097FB3EF490950C
:100D50008095709561957F4F8F4F9F4F9923A9F094
:100D6000F92F96E9BB279395F69587957795679523
:100D7000B795F111F8CFFAF4BB0F11F460FF1BC067
:100D80006F5F7F4F8F4F9F4F16C0882311F096E9FA
:100D900011C0772321F09EE8872F762F05C06623A8
:100DA00071F096E8862F70E060E02AF09A95660F61
:100DB000771F881FDAF7880F9695879597F908951A
:100DC0000E944B0720F019F00E94520750F40C9437
:100DD00048070C948D07E92F0E946A0788F3552372
:100DE000B1F3E7FB6217730784079507A8F189F34E
:100DF000E92FFF2788232AF03197660F771F881F76
:100E0000DAF7952F5527442332F091505040220FA6
:100E1000331F441FD2F7BB27E91BF50B621B730B73
:100E2000840BB109B1F222F4620F731F841FB11D4C
:100E300031972AF0660F771F881FBB1FEFCF9150A5
:100E4000504062F041F0882332F0660F771F881F10
:100E500091505040C1F793950C943A078695779539
:100E600067959F5FD9F7F7CF97F99F6780E870E0A4
:100E700060E008959F3F31F0915020F48795779579
:100E80006795B795880F911D9695879597F9089561
:100E90009FEF80EC089500240A9416161706180692
:100EA0000906089500240A9412161306140605066E
:100EB0000895092E0394000C11F4882352F0BB0FFF
:100EC00040F4BF2B11F460FF04C06F5F7F4F8F4F62
:100ED0009F4F089557FD9058440F551F59F05F3F9D
:100EE00071F04795880F97FB991F61F09F3F79F04C
:100EF00087950895121613061406551FF2CF4695CE
:100F0000F1DF08C0161617061806991FF1CF86954F
:100F10007105610508940895E894BB276627772733
:100F2000CB0197F908950E94A6070C9459070E94D7
:100F30004B0738F00E94520720F0952311F00C94D3
:100F400034070C94480711240C948D070E946A07FB
:100F500070F3959FC1F3950F50E0551F629FF0010C
:100F6000729FBB27F00DB11D639FAA27F00DB11D25
:100F7000AA1F649F6627B00DA11D661F829F2227AE
:100F8000B00DA11D621F739FB00DA11D621F839F35
:100F9000A00D611D221F749F3327A00D611D231F0B
:100FA000849F600D211D822F762F6A2F11249F5759
:100FB00050409AF0F1F088234AF0EE0FFF1FBB1F5C
:100FC000661F771F881F91505040A9F79E3F51051B
:100FD00080F00C9434070C948D075F3FE4F3983E47
:100FE000D4F3869577956795B795F795E7959F5FC5
:100FF000C1F7FE2B880F911D9695879597F9089557
:04100000F894FFCF92
:08100400DD0602006006400653
:00000001FF
