S01B00004154586D6567615F535354565F456E636F64652E7372656326
S11300000C94FE000C941F010C941F010C941F010E
S11300100C941F010C941F010C941F010C941F01DC
S11300200C941F010C941F010C941F010C941F01CC
S11300300C941F010C941F010C941F010C941F01BC
S11300400C9479030C941F010C941F010C941F0150
S11300500C941F010C941F010C941F010C941F019C
S11300600C941F010C941F010C9458050C941F014F
S11300700C941F010C941F010C941F010C941F017C
S11300800C941F010C941F010C941F010C941F016C
S11300900C941F010C941F010C941F010C941F015C
S11300A00C941F010C941F010C941F010C941F014C
S11300B00C941F010C941F010C941F010C941F013C
S11300C00C941F010C941F010C941F010C941F012C
S11300D00C941F010C941F010C941F010C941F011C
S11300E00C941F010C941F010C941F010C941F010C
S11300F00C941F010C941F010C941F010C941F01FC
S11301000C941F010C941F010C941F010C941F01EB
S11301100C941F010C941F010C941F010C941F01DB
S11301200C941F010C941F010C941F010C941F01CB
S11301300C941F010C941F010C941F010C941F01BB
S11301400C941F010C941F010C941F010C941F01AB
S11301500C941F010C941F010C941F010C941F019B
S11301600C941F010C941F010C941F010C941F018B
S11301700C941F010C941F010C941F010C941F017B
S11301800C941F010C941F010C941F010C941F016B
S11301900C941F010C941F010C941F010C941F015B
S11301A00C941F010C941F010C941F010C941F014B
S11301B00C941F010C941F010C941F010C941F013B
S11301C00C941F010C941F010C941F010C941F012B
S11301D00C941F010C941F010C941F010C941F011B
S11301E00C941F010C941F010C941F010C941F010B
S11301F00C941F010C941F010C941F0111241FBEA9
S1130200CFEFCDBFDFE3DEBF00E00CBF10E2A0E024
S1130210B0E2ECE3F0E100E00BBF02C007900D9206
S1130220A430B107D9F720E2A4E0B0E201C01D92E6
S1130230A433B207E1F70E94DB010C941C080C9470
S11302400000CF92DF92EF92FF920F931F93CF9310
S1130250DF938A0120E030E040E85DE40E948707F4
S113026020E23CEB4EEB5BE40E94EF050E9461064A
S11302706B017C01CC2420ECD2222FE0F2220B2E45
S1130280BEE0F594E794D794C794BA95D1F7B02D0E
S1130290EB01DF7380E091E20E94B004CE01906430
S11302A00E94B004C60190640E94B004C8019F700B
S11302B0906C0E94B00480E090E20E94B004DF9150
S11302C0CF911F910F91FF90EF90DF90CF90089501
S11302D04F925F926F927F928F929F92AF92BF9252
S11302E0CF92DF92EF92FF920F931F93CF93DF93FE
S11302F000D01F92CDB7DEB72B013C0149015A0152
S11303006701780160E070E080E89FE30E94EF05F8
S113031069837A838B839C8320E034E244E759E445
S1130320C701B6010E94EF0529813A814B815C81A6
S11303300E94DF069B01AC010E94830520ED3FE093
S113034049E450E40E948707A50194010E948707AD
S11303506B017C012CE839EF42E254E4C301B201A1
S11303600E94EF059B01AC01C701B6010E94830501
S113037020E030E040E055E40E94870720ED3FE0B4
S113038049E450E40E94EF050E946806CB012496DC
S1130390CDBFDEBFDF91CF911F910F91FF90EF9002
S11303A0DF90CF90BF90AF909F908F907F906F9091
S11303B05F904F9008950E94F7040E9427050E94C1
S11303C0E4010E94FE01FFCF0E94DF040E9480042A
S11303D080E091E00E94B00440E050E060E070E012
S11303E0CB010E9421012FEF81EE94E02150804047
S11303F09040E1F700C00000F89408950F931F9314
S1130400CF93DF932FEF81EE94E021508040904012
S1130410E1F700C0000040E050E060E070E88DEEDD
S113042094E40E942101EFEFF5EA2EE0E150F04060
S11304302040E1F700C0000040E050E060E070E0E0
S113044086E994E40E9421018FE39CE90197F1F786
S113045000C0000040E050E060E070E88DEE94E4FD
S11304600E9421019FEFE5EAFEE09150E040F04058
S1130470E1F700C0000040E050E060E070E086E991
S113048094E40E9421012FE78AE691E02150804004
S11304909040E1F700C00000E3E0FFE03197F1F79E
S11304A000C0000040E050E060E070E889E894E4B7
S11304B00E942101FFE72AE681E0F15020408040BC
S11304C0E1F700C00000E3E0FFE03197F1F700C07E
S11304D0000040E050E060E070E889E894E40E94A5
S11304E02101FFE72AE681E0F15020408040E1F756
S11304F000C00000E3E0FFE03197F1F700C0000026
S113050040E050E060E070E882EA94E40E94210157
S1130510FFE72AE681E0F15020408040E1F700C087
S11305200000E3E0FFE03197F1F700C0000040E095
S113053050E060E070E882EA94E40E942101FFE761
S11305402AE681E0F15020408040E1F700C000003D
S1130550E3E0FFE03197F1F700C0000040E050E035
S113056060E070E882EA94E40E942101FFE72AE651
S113057081E0F15020408040E1F700C00000E3E05A
S1130580FFE03197F1F700C0000040E050E060E088
S113059070E889E894E40E942101FFE72AE681E0FB
S11305A0F15020408040E1F700C00000E3E0FFE0AC
S11305B03197F1F700C0000040E050E060E070E8DF
S11305C089E894E40E942101FFE72AE681E0F150E2
S11305D020408040E1F700C00000E3E0FFE03197F5
S11305E0F1F700C0000040E050E060E070E882EA0B
S11305F094E40E942101FFE72AE681E0F1502040C3
S11306008040E1F700C00000E3E0FFE03197F1F73C
S113061000C0000040E050E060E070E086E994E44F
S11306200E942101FFE72AE681E0F150204080404A
S1130630E1F700C00000E3E0FFE03197F1F700C00C
S11306400000C1E8D0E000E018E040E050E060E0E5
S113065070E086E994E40E942101FFE72DEE80E03A
S1130660F15020408040E1F700C00000EFEDFEE0D3
S11306703197F1F700C0000040E050E060E070E81E
S11306808BEB94E40E9421018FE39FE10197F1F742
S113069000C000009AEA9A95F1F700C01092042075
S11306A010920520F80110A211A2789480910420E0
S11306B09091052081309540CCF3F894219729F648
S11306C080E091E00E94B00440E050E060E070E01F
S11306D0CB010E9421012FEF81EE94E02150804054
S11306E09040E1F700C00000DF91CF911F910F917E
S11306F008951F920F920FB60F9211240BB60F920A
S11307008F929F92AF92BF92EF92FF920F931F939B
S11307102F933F934F935F936F937F938F939F9305
S1130720AF93BF93CF93DF93EF93FF93C0910A20CE
S1130730D0910B206091002070910120072E000CB5
S1130740880B990B0E949906AE010E9421018091A9
S11307500A2090910B208093082090930920809187
S1130760002090910120809306209093072080918F
S113077004209091052064E170E00E94F407892B25
S113078009F067C0809104209091052064E170E035
S11307900E94F407CB0160FD28C06F3071053CF462
S11307A08DED96E0809300209093012052C06F312C
S11307B071053CF48DEC98E0809300209093012027
S11307C048C06F3271053CF486EF96E080930020B8
S11307D0909301203EC06F337105DCF58DED96E0FA
S11307E0809300209093012034C061707078772347
S11307F034F4615071096E6F7F6F6F5F7F4F6130AA
S1130800710539F5803191053CF483EA97E08093D2
S11308100020909301201DC0803291053CF487E4B0
S113082096E0809300209093012013C080339105BB
S11308303CF485E896E0809300209093012009C061
S11308408034910534F483EA97E0809300209093F8
S113085001206091062070910720C0910820D0915A
S11308600920072E000C880B990B0E9499064B0156
S11308705C01BE01DD0F880B990B0E949906E12CE7
S1130880F12C05E014E4A50194010E946801809311
S11308900A2090930B2080910420909105200196CA
S11308A08093042090930520FF91EF91DF91CF91E5
S11308B0BF91AF919F918F917F916F915F914F9174
S11308C03F912F911F910F91FF90EF90BF90AF90A8
S11308D09F908F900F900BBE0F900FBE0F901F90A4
S11308E01895DC01ED91FC9111976383ED91FC91D6
S11308F082818823ECF783819FEF9093A606089565
S1130900CF93DF93A0E4B6E080E111968C93119726
S113091090E211969C93119790E811969C931197ED
S113092098E354969C93549715968C931597E4E109
S1130930F0E2C0ECD8E0C083D183A283B3831482F5
S113094088ED8883A081B18111961C92158216824C
S11309500280F381E02D80EA8183DF91CF910895B5
S1130960FF920F931F93CF93DF93F82EC1E0C093B0
S113097001068FEF8093A10605E016E0F801C0831D
S1130980E0910220F0910320D0E1D683C0930606C3
S1130990692F84E190E20E9471046F2D84E190E25A
S11309A00E947104E0910220F0910320D583F801A4
S11309B0C083DF91CF911F910F91FF900895E0E0E4
S11309C0F8E081E1818383E087838FEF9FEF86A343
S11309D097A385E491E2809328089093290881E005
S11309E08083E0EAF0E0828184608283089581E07C
S11309F0809360068BEC80935200E0E5F0E0808108
S1130A0088608083E1E5F0E0808183FFFDCF88ED9D
S1130A1084BF83E0809340000895FC01968585851A
S1130A20981307C00190F081E02D83818C7F83832C
S1130A3008958685DF01A80FB11D17968C91A081BA
S1130A40B1818C9386858F5F837086870895E0E4F7
S1130A50F6E088E0818384E08283A5E2B0E2E0EA04
S1130A60F8E0ED93FC93119781E012968C93129722
S1130A701C961C921C971B961C921B971E961C92EC
S1130A801E971D961C9283E0858383818F7C8061F1
S1130A9083838CE08683178284818061848384814C
S1130AA088608483E0EAF0E0828181608283089533
S1130AB01F920F920FB60F9211240BB60F922F9321
S1130AC03F934F935F936F937F938F939F93AF93D2
S1130AD0BF93EF93FF9385E290E20E940D05FF918F
S1130AE0EF91BF91AF919F918F917F916F915F91A2
S1130AF04F913F912F910F900BBE0F900FBE0F900F
S1130B001F9018955058BB27AA270E949A050C9449
S1130B104D070E943F0738F00E94460720F039F441
S1130B209F3F19F426F40C943C070EF4E095E7FB80
S1130B300C942807E92F0E945E0758F3BA1762073E
S1130B4073078407950720F079F4A6F50C948007C1
S1130B500EF4E0950B2EBA2FA02D0B01B9019001D4
S1130B600C01CA01A0011124FF27591B99F0593F18
S1130B7050F4503E68F11A16F040A22F232F342F60
S1130B804427585FF3CF469537952795A795F040AE
S1130B905395C9F77EF41F16BA0B620B730B840BC3
S1130BA0BAF09150A1F0FF0FBB1F661F771F881F7B
S1130BB0C2F70EC0BA0F621F731F841F48F48795D3
S1130BC077956795B795F7959E3F08F0B0CF9395C5
S1130BD0880F08F09927EE0F9795879508950E943E
S1130BE003060C944D070E94460758F00E943F07E5
S1130BF040F029F45F3F29F00C94280751110C941C
S1130C0081070C943C070E945E0768F39923B1F3B3
S1130C10552391F3951B550BBB27AA27621773071E
S1130C20840738F09F5F5F4F220F331F441FAA1FB2
S1130C30A9F335D00E2E3AF0E0E832D0915050406E
S1130C40E695001CCAF72BD0FE2F29D0660F771F1C
S1130C50881FBB1F261737074807AB07B0E809F002
S1130C60BB0B802DBF01FF2793585F4F3AF09E3F87
S1130C70510578F00C9428070C9481075F3FE4F346
S1130C80983ED4F3869577956795B795F7959F5FCA
S1130C90C9F7880F911D9695879597F90895E1E016
S1130CA0660F771F881FBB1F621773078407BA0775
S1130CB020F0621B730B840BBA0BEE1F88F7E095D0
S1130CC008950E9468066894B1110C9481070895F0
S1130CD00E94660788F09F5798F0B92F9927B7515B
S1130CE0B0F0E1F0660F771F881F991F1AF0BA95CC
S1130CF0C9F714C0B13091F00E948007B1E00895A3
S1130D000C948007672F782F8827B85F39F0B93F94
S1130D10CCF3869577956795B395D9F73EF490957E
S1130D208095709561957F4F8F4F9F4F0895E894FC
S1130D3009C097FB3EF490958095709561957F4F1F
S1130D408F4F9F4F9923A9F0F92F96E9BB279395CD
S1130D50F695879577956795B795F111F8CFFAF4DD
S1130D60BB0F11F460FF1BC06F5F7F4F8F4F9F4F0E
S1130D7016C0882311F096E911C0772321F09EE86C
S1130D80872F762F05C0662371F096E8862F70E0D2
S1130D9060E02AF09A95660F771F881FDAF7880FAC
S1130DA09695879597F908950E943F0720F019F0CA
S1130DB00E94460750F40C943C070C948107E92FD9
S1130DC00E945E0788F35523B1F3E7FB62177307AC
S1130DD084079507A8F189F3E92FFF2788232AF0D0
S1130DE03197660F771F881FDAF7952F552744230D
S1130DF032F091505040220F331F441FD2F7BB27CB
S1130E00E91BF50B621B730B840BB109B1F222F4DD
S1130E10620F731F841FB11D31972AF0660F771F6D
S1130E20881FBB1FEFCF9150504062F041F08823E0
S1130E3032F0660F771F881F91505040C1F7939589
S1130E400C942E078695779567959F5FD9F7F7CF12
S1130E5097F99F6780E870E060E008959F3F31F064
S1130E60915020F4879577956795B795880F911DD4
S1130E709695879597F908959FEF80EC089500243F
S1130E800A941616170618060906089500240A94EB
S1130E9012161306140605060895092E0394000C71
S1130EA011F4882352F0BB0F40F4BF2B11F460FF00
S1130EB004C06F5F7F4F8F4F9F4F089557FD905829
S1130EC0440F551F59F05F3F71F04795880F97FB0A
S1130ED0991F61F09F3F79F08795089512161306C4
S1130EE01406551FF2CF4695F1DF08C016161706F3
S1130EF01806991FF1CF8695710561050894089528
S1130F00E894BB2766277727CB0197F908950E94B9
S1130F109A070C944D070E943F0738F00E94460739
S1130F2020F0952311F00C9428070C943C0711240D
S1130F300C9481070E945E0770F3959FC1F3950F8F
S1130F4050E0551F629FF001729FBB27F00DB11D49
S1130F50639FAA27F00DB11DAA1F649F6627B00DD9
S1130F60A11D661F829F2227B00DA11D621F739FC2
S1130F70B00DA11D621F839FA00D611D221F749FD0
S1130F803327A00D611D231F849F600D211D822F17
S1130F90762F6A2F11249F5750409AF0F1F088233E
S1130FA04AF0EE0FFF1FBB1F661F771F881F91506B
S1130FB05040A9F79E3F510580F00C9428070C94EB
S1130FC081075F3FE4F3983ED4F386957795679560
S1130FD0B795F795E7959F5FC1F7FE2B880F911D95
S1130FE09695879597F9089597FB072E16F4009424
S1130FF007D077FD09D00E94080807FC05D03EF40D
S1131000909581959F4F0895709561957F4F0895B0
S1131010AA1BBB1B51E107C0AA1FBB1FA617B7071A
S113102010F0A61BB70B881F991F5A95A9F7809536
S10F10309095BC01CD010895F894FFCF09
S107103CDD06400683
S9030000FC
