S01A0000496D61676520577269746520454550524F4D2E7372656314
S11300000C94FE000C941F010C941F010C941F010E
S11300100C941F010C941F010C941F010C941F01DC
S11300200C941F010C941F010C941F010C941F01CC
S11300300C941F010C941F010C941F010C941F01BC
S11300400C941F010C941F010C941F010C941F01AC
S11300500C941F010C941F010C941F010C941F019C
S11300600C941F010C941F010C94A2020C941F0108
S11300700C941F010C941F010C941F010C941F017C
S11300800C941F010C941F010C941F010C941F016C
S11300900C941F010C941F010C941F010C941F015C
S11300A00C941F010C941F010C941F010C941F014C
S11300B00C941F010C941F010C941F010C941F013C
S11300C00C941F010C941F010C941F010C941F012C
S11300D00C941F010C941F010C941F010C941F011C
S11300E00C941F010C941F010C941F010C941F010C
S11300F00C941F010C941F010C941F010C941F01FC
S11301000C941F010C941F010C941F010C941F01EB
S11301100C941F010C941F010C941F010C941F01DB
S11301200C941F010C941F010C941F010C941F01CB
S11301300C941F010C941F010C941F010C941F01BB
S11301400C941F010C941F010C941F010C941F01AB
S11301500C941F010C941F010C941F010C941F019B
S11301600C941F010C941F010C941F010C941F018B
S11301700C941F010C941F010C941F010C941F017B
S11301800C941F010C941F010C941F010C941F016B
S11301900C941F010C941F010C941F010C941F015B
S11301A00C941F010C941F010C941F010C941F014B
S11301B00C941F010C941F010C941F010C941F013B
S11301C00C941F010C941F010C941F010C941F012B
S11301D00C941F010C941F010C941F010C941F011B
S11301E00C941F010C941F010C941F010C941F010B
S11301F00C941F010C941F010C941F0111241FBEA9
S1130200CFEFCDBFDFE3DEBF00E00CBF10E2A0E024
S1130210B0E2ECE9F5E000E00BBF02C007900D92FC
S1130220A430B107D9F720E2A4E0B0E201C01D92E6
S1130230A632B207E1F70E9421010C94CC020C947F
S11302400000CF93DF9300D0CDB7DEB719821A82B6
S11302501B820E9439020E9469020E9446010E9488
S11302609A02182F81E090E00E947601212FAE01BE
S11302704D5F5F4FBE016E5F7F4FCE0101960E94BE
S1130280B00181E090E00E949301E9CFAF92CF9258
S1130290EF920F93E0E6F6E034E0318328E0218327
S11302A090E1918380E2818380E8818388E3828B7B
S11302B0838B848B358325839583A12CCC24C39491
S11302C0E12C08E020E040E656E060EC79E08FE0C5
S11302D090E20E94000282E090E0809300209093DC
S11302E001200F91EF90CF90AF9008958230910547
S11302F061F08330910581F00197A1F4E09102202F
S1130300F091032084E086830895E0910220F09127
S1130310032088E086830895E0910220F091032071
S113032080E1868308958230910561F083309105E0
S113033081F00197A1F4E0910220F091032084E080
S113034085830895E0910220F091032088E085835D
S11303500895E0910220F091032080E185830895BF
S1130360DF92EF92FF920F931F93CF93DF937C0161
S11303708B01EA01D22E88818F3F89F4FB018081B1
S11303808F3F41F4F70180818F5F8083FB011082EE
S1130390188207C08F5FFB018083188202C08F5FC1
S11303A0888380910020909101200E94760162E070
S11303B08FE090E20E942D02F70160818FE090E2CD
S11303C00E942D02F80160818FE090E20E942D02CC
S11303D068818FE090E20E942D026D2D8FE090E203
S11303E00E942D0280910020909101200E9493018F
S11303F0DF91CF911F910F91FF90EF90DF900895BF
S1130400AF92CF92EF920F93FC016083718342838A
S113041053831482C11002C080E001C080E89A2D89
S11304209064A92EA82A211102C080E001C080E2B4
S1130430A82A00610A29DB010C93A081B1811196DD
S1130440EC92158216820280F381E02D80EA81838A
S11304500F91EF90CF90AF900895DC01ED91FC9156
S113046011976383ED91FC9182818823ECF783815A
S1130470089581E0809360068BEC80935200E0E560
S1130480F0E0808188608083E1E5F0E0808183FF93
S1130490FDCF88ED84BF83E0809340000895FC0184
S11304A096858585981307C00190F081E02D83819E
S11304B08C7F838308958685DF01A80FB11D17966D
S11304C08C91A081B1818C9386858F5F83708687A0
S11304D00895E0E4F6E088E0818384E08283A7E184
S11304E0B0E2E0EAF8E0ED93FC93119781E0129614
S11304F08C9312971C961C921C971B961C921B970C
S11305001E961C921E971D961C9283E08583838100
S11305108F7C806183838CE08683178284818061F1
S11305208483848188608483E0EAF0E0828181604E
S113053082830895E0EAF8E081818823ECF78091D2
S1130540A00808951F920F920FB60F9211240BB6B4
S11305500F922F933F934F935F936F937F938F9358
S11305609F93AF93BF93EF93FF9387E190E20E9431
S11305704F02FF91EF91BF91AF919F918F917F9126
S11305806F915F914F913F912F910F900BBE0F9000
S10F05900FBE0F901F901895F894FFCF39
S107059C02006006EF
S9030000FC
